{
  "contractName": "NftMarket",
  "abi": [
    {
      "inputs": [],
      "stateMutability": "nonpayable",
      "type": "constructor"
    },
    {
      "anonymous": false,
      "inputs": [
        {
          "indexed": true,
          "internalType": "address",
          "name": "owner",
          "type": "address"
        },
        {
          "indexed": true,
          "internalType": "address",
          "name": "approved",
          "type": "address"
        },
        {
          "indexed": true,
          "internalType": "uint256",
          "name": "tokenId",
          "type": "uint256"
        }
      ],
      "name": "Approval",
      "type": "event"
    },
    {
      "anonymous": false,
      "inputs": [
        {
          "indexed": true,
          "internalType": "address",
          "name": "owner",
          "type": "address"
        },
        {
          "indexed": true,
          "internalType": "address",
          "name": "operator",
          "type": "address"
        },
        {
          "indexed": false,
          "internalType": "bool",
          "name": "approved",
          "type": "bool"
        }
      ],
      "name": "ApprovalForAll",
      "type": "event"
    },
    {
      "anonymous": false,
      "inputs": [
        {
          "indexed": false,
          "internalType": "uint256",
          "name": "tokenId",
          "type": "uint256"
        },
        {
          "indexed": false,
          "internalType": "uint256",
          "name": "price",
          "type": "uint256"
        },
        {
          "indexed": false,
          "internalType": "address",
          "name": "creator",
          "type": "address"
        },
        {
          "indexed": false,
          "internalType": "bool",
          "name": "isListed",
          "type": "bool"
        }
      ],
      "name": "NftItemCreated",
      "type": "event"
    },
    {
      "anonymous": false,
      "inputs": [
        {
          "indexed": true,
          "internalType": "address",
          "name": "previousOwner",
          "type": "address"
        },
        {
          "indexed": true,
          "internalType": "address",
          "name": "newOwner",
          "type": "address"
        }
      ],
      "name": "OwnershipTransferred",
      "type": "event"
    },
    {
      "anonymous": false,
      "inputs": [
        {
          "indexed": true,
          "internalType": "address",
          "name": "from",
          "type": "address"
        },
        {
          "indexed": true,
          "internalType": "address",
          "name": "to",
          "type": "address"
        },
        {
          "indexed": true,
          "internalType": "uint256",
          "name": "tokenId",
          "type": "uint256"
        }
      ],
      "name": "Transfer",
      "type": "event"
    },
    {
      "inputs": [],
      "name": "ROYALTY_PERCENTAGE",
      "outputs": [
        {
          "internalType": "uint256",
          "name": "",
          "type": "uint256"
        }
      ],
      "stateMutability": "view",
      "type": "function",
      "constant": true
    },
    {
      "inputs": [
        {
          "internalType": "address",
          "name": "to",
          "type": "address"
        },
        {
          "internalType": "uint256",
          "name": "tokenId",
          "type": "uint256"
        }
      ],
      "name": "approve",
      "outputs": [],
      "stateMutability": "nonpayable",
      "type": "function"
    },
    {
      "inputs": [
        {
          "internalType": "address",
          "name": "owner",
          "type": "address"
        }
      ],
      "name": "balanceOf",
      "outputs": [
        {
          "internalType": "uint256",
          "name": "",
          "type": "uint256"
        }
      ],
      "stateMutability": "view",
      "type": "function",
      "constant": true
    },
    {
      "inputs": [
        {
          "internalType": "uint256",
          "name": "tokenId",
          "type": "uint256"
        }
      ],
      "name": "getApproved",
      "outputs": [
        {
          "internalType": "address",
          "name": "",
          "type": "address"
        }
      ],
      "stateMutability": "view",
      "type": "function",
      "constant": true
    },
    {
      "inputs": [
        {
          "internalType": "address",
          "name": "owner",
          "type": "address"
        },
        {
          "internalType": "address",
          "name": "operator",
          "type": "address"
        }
      ],
      "name": "isApprovedForAll",
      "outputs": [
        {
          "internalType": "bool",
          "name": "",
          "type": "bool"
        }
      ],
      "stateMutability": "view",
      "type": "function",
      "constant": true
    },
    {
      "inputs": [],
      "name": "listingPrice",
      "outputs": [
        {
          "internalType": "uint256",
          "name": "",
          "type": "uint256"
        }
      ],
      "stateMutability": "view",
      "type": "function",
      "constant": true
    },
    {
      "inputs": [],
      "name": "name",
      "outputs": [
        {
          "internalType": "string",
          "name": "",
          "type": "string"
        }
      ],
      "stateMutability": "view",
      "type": "function",
      "constant": true
    },
    {
      "inputs": [],
      "name": "owner",
      "outputs": [
        {
          "internalType": "address",
          "name": "",
          "type": "address"
        }
      ],
      "stateMutability": "view",
      "type": "function",
      "constant": true
    },
    {
      "inputs": [
        {
          "internalType": "uint256",
          "name": "tokenId",
          "type": "uint256"
        }
      ],
      "name": "ownerOf",
      "outputs": [
        {
          "internalType": "address",
          "name": "",
          "type": "address"
        }
      ],
      "stateMutability": "view",
      "type": "function",
      "constant": true
    },
    {
      "inputs": [],
      "name": "renounceOwnership",
      "outputs": [],
      "stateMutability": "nonpayable",
      "type": "function"
    },
    {
      "inputs": [
        {
          "internalType": "address",
          "name": "from",
          "type": "address"
        },
        {
          "internalType": "address",
          "name": "to",
          "type": "address"
        },
        {
          "internalType": "uint256",
          "name": "tokenId",
          "type": "uint256"
        }
      ],
      "name": "safeTransferFrom",
      "outputs": [],
      "stateMutability": "nonpayable",
      "type": "function"
    },
    {
      "inputs": [
        {
          "internalType": "address",
          "name": "from",
          "type": "address"
        },
        {
          "internalType": "address",
          "name": "to",
          "type": "address"
        },
        {
          "internalType": "uint256",
          "name": "tokenId",
          "type": "uint256"
        },
        {
          "internalType": "bytes",
          "name": "_data",
          "type": "bytes"
        }
      ],
      "name": "safeTransferFrom",
      "outputs": [],
      "stateMutability": "nonpayable",
      "type": "function"
    },
    {
      "inputs": [
        {
          "internalType": "address",
          "name": "operator",
          "type": "address"
        },
        {
          "internalType": "bool",
          "name": "approved",
          "type": "bool"
        }
      ],
      "name": "setApprovalForAll",
      "outputs": [],
      "stateMutability": "nonpayable",
      "type": "function"
    },
    {
      "inputs": [
        {
          "internalType": "bytes4",
          "name": "interfaceId",
          "type": "bytes4"
        }
      ],
      "name": "supportsInterface",
      "outputs": [
        {
          "internalType": "bool",
          "name": "",
          "type": "bool"
        }
      ],
      "stateMutability": "view",
      "type": "function",
      "constant": true
    },
    {
      "inputs": [],
      "name": "symbol",
      "outputs": [
        {
          "internalType": "string",
          "name": "",
          "type": "string"
        }
      ],
      "stateMutability": "view",
      "type": "function",
      "constant": true
    },
    {
      "inputs": [
        {
          "internalType": "uint256",
          "name": "tokenId",
          "type": "uint256"
        }
      ],
      "name": "tokenURI",
      "outputs": [
        {
          "internalType": "string",
          "name": "",
          "type": "string"
        }
      ],
      "stateMutability": "view",
      "type": "function",
      "constant": true
    },
    {
      "inputs": [
        {
          "internalType": "address",
          "name": "from",
          "type": "address"
        },
        {
          "internalType": "address",
          "name": "to",
          "type": "address"
        },
        {
          "internalType": "uint256",
          "name": "tokenId",
          "type": "uint256"
        }
      ],
      "name": "transferFrom",
      "outputs": [],
      "stateMutability": "nonpayable",
      "type": "function"
    },
    {
      "inputs": [
        {
          "internalType": "address",
          "name": "newOwner",
          "type": "address"
        }
      ],
      "name": "transferOwnership",
      "outputs": [],
      "stateMutability": "nonpayable",
      "type": "function"
    },
    {
      "inputs": [
        {
          "internalType": "uint256",
          "name": "newPrice",
          "type": "uint256"
        }
      ],
      "name": "setListingPrice",
      "outputs": [],
      "stateMutability": "nonpayable",
      "type": "function"
    },
    {
      "inputs": [
        {
          "internalType": "uint256",
          "name": "tokenId",
          "type": "uint256"
        }
      ],
      "name": "getNftItem",
      "outputs": [
        {
          "components": [
            {
              "internalType": "uint256",
              "name": "tokenId",
              "type": "uint256"
            },
            {
              "internalType": "uint256",
              "name": "price",
              "type": "uint256"
            },
            {
              "internalType": "address",
              "name": "creator",
              "type": "address"
            },
            {
              "internalType": "bool",
              "name": "isListed",
              "type": "bool"
            }
          ],
          "internalType": "struct NftMarket.NftItem",
          "name": "",
          "type": "tuple"
        }
      ],
      "stateMutability": "view",
      "type": "function",
      "constant": true
    },
    {
      "inputs": [],
      "name": "listedItemsCount",
      "outputs": [
        {
          "internalType": "uint256",
          "name": "",
          "type": "uint256"
        }
      ],
      "stateMutability": "view",
      "type": "function",
      "constant": true
    },
    {
      "inputs": [
        {
          "internalType": "string",
          "name": "tokenURI",
          "type": "string"
        }
      ],
      "name": "tokenURIExists",
      "outputs": [
        {
          "internalType": "bool",
          "name": "",
          "type": "bool"
        }
      ],
      "stateMutability": "view",
      "type": "function",
      "constant": true
    },
    {
      "inputs": [],
      "name": "totalSupply",
      "outputs": [
        {
          "internalType": "uint256",
          "name": "",
          "type": "uint256"
        }
      ],
      "stateMutability": "view",
      "type": "function",
      "constant": true
    },
    {
      "inputs": [
        {
          "internalType": "uint256",
          "name": "index",
          "type": "uint256"
        }
      ],
      "name": "tokenByIndex",
      "outputs": [
        {
          "internalType": "uint256",
          "name": "",
          "type": "uint256"
        }
      ],
      "stateMutability": "view",
      "type": "function",
      "constant": true
    },
    {
      "inputs": [
        {
          "internalType": "address",
          "name": "owner",
          "type": "address"
        },
        {
          "internalType": "uint256",
          "name": "index",
          "type": "uint256"
        }
      ],
      "name": "tokenOfOwnerByIndex",
      "outputs": [
        {
          "internalType": "uint256",
          "name": "",
          "type": "uint256"
        }
      ],
      "stateMutability": "view",
      "type": "function",
      "constant": true
    },
    {
      "inputs": [],
      "name": "getAllNftsOnSale",
      "outputs": [
        {
          "components": [
            {
              "internalType": "uint256",
              "name": "tokenId",
              "type": "uint256"
            },
            {
              "internalType": "uint256",
              "name": "price",
              "type": "uint256"
            },
            {
              "internalType": "address",
              "name": "creator",
              "type": "address"
            },
            {
              "internalType": "bool",
              "name": "isListed",
              "type": "bool"
            }
          ],
          "internalType": "struct NftMarket.NftItem[]",
          "name": "",
          "type": "tuple[]"
        }
      ],
      "stateMutability": "view",
      "type": "function",
      "constant": true
    },
    {
      "inputs": [],
      "name": "getOwnedNfts",
      "outputs": [
        {
          "components": [
            {
              "internalType": "uint256",
              "name": "tokenId",
              "type": "uint256"
            },
            {
              "internalType": "uint256",
              "name": "price",
              "type": "uint256"
            },
            {
              "internalType": "address",
              "name": "creator",
              "type": "address"
            },
            {
              "internalType": "bool",
              "name": "isListed",
              "type": "bool"
            }
          ],
          "internalType": "struct NftMarket.NftItem[]",
          "name": "",
          "type": "tuple[]"
        }
      ],
      "stateMutability": "view",
      "type": "function",
      "constant": true
    },
    {
      "inputs": [
        {
          "internalType": "string",
          "name": "tokenURI",
          "type": "string"
        },
        {
          "internalType": "uint256",
          "name": "price",
          "type": "uint256"
        }
      ],
      "name": "mintToken",
      "outputs": [
        {
          "internalType": "uint256",
          "name": "",
          "type": "uint256"
        }
      ],
      "stateMutability": "payable",
      "type": "function",
      "payable": true
    },
    {
      "inputs": [
        {
          "internalType": "uint256",
          "name": "tokenId",
          "type": "uint256"
        }
      ],
      "name": "buyNft",
      "outputs": [],
      "stateMutability": "payable",
      "type": "function",
      "payable": true
    },
    {
      "inputs": [
        {
          "internalType": "uint256",
          "name": "tokenId",
          "type": "uint256"
        },
        {
          "internalType": "uint256",
          "name": "newPrice",
          "type": "uint256"
        }
      ],
      "name": "placeNftOnSale",
      "outputs": [],
      "stateMutability": "payable",
      "type": "function",
      "payable": true
    }
  ],
  "bytecode": "0x60806040526658d15e176280006008553480156200001c57600080fd5b506040518060400160405280600c81526020017f4372656174757265734e465400000000000000000000000000000000000000008152506040518060400160405280600481526020017f434e4654000000000000000000000000000000000000000000000000000000008152508160009080519060200190620000a1929190620001b1565b508060019080519060200190620000ba929190620001b1565b505050620000dd620000d1620000e360201b60201c565b620000eb60201b60201c565b620002c5565b600033905090565b6000600760009054906101000a900473ffffffffffffffffffffffffffffffffffffffff16905081600760006101000a81548173ffffffffffffffffffffffffffffffffffffffff021916908373ffffffffffffffffffffffffffffffffffffffff1602179055508173ffffffffffffffffffffffffffffffffffffffff168173ffffffffffffffffffffffffffffffffffffffff167f8be0079c531659141344cd1fd0a4f28419497f9722a3daafe3b4186f6b6457e060405160405180910390a35050565b828054620001bf9062000290565b90600052602060002090601f016020900481019282620001e357600085556200022f565b82601f10620001fe57805160ff19168380011785556200022f565b828001600101855582156200022f579182015b828111156200022e57825182559160200191906001019062000211565b5b5090506200023e919062000242565b5090565b5b808211156200025d57600081600090555060010162000243565b5090565b7f4e487b7100000000000000000000000000000000000000000000000000000000600052602260045260246000fd5b60006002820490506001821680620002a957607f821691505b602082108103620002bf57620002be62000261565b5b50919050565b614b6e80620002d56000396000f3fe6080604052600436106101cd5760003560e01c80636f1a0af5116100f7578063a22cb46511610095578063c87b56dd11610064578063c87b56dd14610687578063ccb4918d146106c4578063e985e9c5146106ef578063f2fde38b1461072c576101cd565b8063a22cb465146105da578063b88d4fde14610603578063c046372c1461062c578063c78f19f91461065c576101cd565b8063715018a6116100d1578063715018a6146105445780637c726b691461055b5780638da5cb5b1461058457806395d89b41146105af576101cd565b80636f1a0af51461049f57806370a08231146104dc57806370cbcb4314610519576101cd565b8063243adbdd1161016f57806343d32ae71161013e57806343d32ae7146103bd578063463b08db146103fa5780634f6ccce7146104255780636352211e14610462576101cd565b8063243adbdd146103105780632f745c591461032c57806336b536be1461036957806342842e0e14610394576101cd565b8063095ea7b3116101ab578063095ea7b31461027757806318160ddd146102a057806321f422e5146102cb57806323b872dd146102e7576101cd565b806301ffc9a7146101d257806306fdde031461020f578063081812fc1461023a575b600080fd5b3480156101de57600080fd5b506101f960048036038101906101f491906130b1565b610755565b60405161020691906130f9565b60405180910390f35b34801561021b57600080fd5b50610224610837565b60405161023191906131ad565b60405180910390f35b34801561024657600080fd5b50610261600480360381019061025c9190613205565b6108c9565b60405161026e9190613273565b60405180910390f35b34801561028357600080fd5b5061029e600480360381019061029991906132ba565b61094e565b005b3480156102ac57600080fd5b506102b5610a65565b6040516102c29190613309565b60405180910390f35b6102e560048036038101906102e09190613324565b610a72565b005b3480156102f357600080fd5b5061030e60048036038101906103099190613364565b610bee565b005b61032a60048036038101906103259190613205565b610c4e565b005b34801561033857600080fd5b50610353600480360381019061034e91906132ba565b610e62565b6040516103609190613309565b60405180910390f35b34801561037557600080fd5b5061037e610f07565b60405161038b91906134e8565b60405180910390f35b3480156103a057600080fd5b506103bb60048036038101906103b69190613364565b6110a1565b005b3480156103c957600080fd5b506103e460048036038101906103df919061363f565b6110c1565b6040516103f191906130f9565b60405180910390f35b34801561040657600080fd5b5061040f6110fd565b60405161041c9190613309565b60405180910390f35b34801561043157600080fd5b5061044c60048036038101906104479190613205565b611102565b6040516104599190613309565b60405180910390f35b34801561046e57600080fd5b5061048960048036038101906104849190613205565b611173565b6040516104969190613273565b60405180910390f35b3480156104ab57600080fd5b506104c660048036038101906104c19190613205565b611224565b6040516104d391906136dd565b60405180910390f35b3480156104e857600080fd5b5061050360048036038101906104fe91906136f8565b6112d6565b6040516105109190613309565b60405180910390f35b34801561052557600080fd5b5061052e61138d565b60405161053b91906134e8565b60405180910390f35b34801561055057600080fd5b506105596114f1565b005b34801561056757600080fd5b50610582600480360381019061057d9190613205565b611579565b005b34801561059057600080fd5b50610599611642565b6040516105a69190613273565b60405180910390f35b3480156105bb57600080fd5b506105c461166c565b6040516105d191906131ad565b60405180910390f35b3480156105e657600080fd5b5061060160048036038101906105fc9190613751565b6116fe565b005b34801561060f57600080fd5b5061062a60048036038101906106259190613832565b611714565b005b610646600480360381019061064191906138b5565b611776565b6040516106539190613309565b60405180910390f35b34801561066857600080fd5b50610671611886565b60405161067e9190613309565b60405180910390f35b34801561069357600080fd5b506106ae60048036038101906106a99190613205565b61188c565b6040516106bb91906131ad565b60405180910390f35b3480156106d057600080fd5b506106d96119dd565b6040516106e69190613309565b60405180910390f35b3480156106fb57600080fd5b5061071660048036038101906107119190613911565b6119ee565b60405161072391906130f9565b60405180910390f35b34801561073857600080fd5b50610753600480360381019061074e91906136f8565b611a82565b005b60007f80ac58cd000000000000000000000000000000000000000000000000000000007bffffffffffffffffffffffffffffffffffffffffffffffffffffffff1916827bffffffffffffffffffffffffffffffffffffffffffffffffffffffff1916148061082057507f5b5e139f000000000000000000000000000000000000000000000000000000007bffffffffffffffffffffffffffffffffffffffffffffffffffffffff1916827bffffffffffffffffffffffffffffffffffffffffffffffffffffffff1916145b80610830575061082f82611b79565b5b9050919050565b60606000805461084690613980565b80601f016020809104026020016040519081016040528092919081815260200182805461087290613980565b80156108bf5780601f10610894576101008083540402835291602001916108bf565b820191906000526020600020905b8154815290600101906020018083116108a257829003601f168201915b5050505050905090565b60006108d482611be3565b610913576040517f08c379a000000000000000000000000000000000000000000000000000000000815260040161090a90613a23565b60405180910390fd5b6004600083815260200190815260200160002060009054906101000a900473ffffffffffffffffffffffffffffffffffffffff169050919050565b600061095982611173565b90508073ffffffffffffffffffffffffffffffffffffffff168373ffffffffffffffffffffffffffffffffffffffff16036109c9576040517f08c379a00000000000000000000000000000000000000000000000000000000081526004016109c090613ab5565b60405180910390fd5b8073ffffffffffffffffffffffffffffffffffffffff166109e8611c4f565b73ffffffffffffffffffffffffffffffffffffffff161480610a175750610a1681610a11611c4f565b6119ee565b5b610a56576040517f08c379a0000000000000000000000000000000000000000000000000000000008152600401610a4d90613b47565b60405180910390fd5b610a608383611c57565b505050565b6000600f80549050905090565b3373ffffffffffffffffffffffffffffffffffffffff16610a9283611173565b73ffffffffffffffffffffffffffffffffffffffff1614610ae8576040517f08c379a0000000000000000000000000000000000000000000000000000000008152600401610adf90613bb3565b60405180910390fd5b60001515600c600084815260200190815260200160002060020160149054906101000a900460ff16151514610b52576040517f08c379a0000000000000000000000000000000000000000000000000000000008152600401610b4990613c1f565b60405180910390fd5b6008543414610b96576040517f08c379a0000000000000000000000000000000000000000000000000000000008152600401610b8d90613cb1565b60405180910390fd5b6001600c600084815260200190815260200160002060020160146101000a81548160ff02191690831515021790555080600c600084815260200190815260200160002060010181905550610bea6009611d10565b5050565b610bff610bf9611c4f565b82611d26565b610c3e576040517f08c379a0000000000000000000000000000000000000000000000000000000008152600401610c3590613d43565b60405180910390fd5b610c49838383611e04565b505050565b6000600c60008381526020019081526020016000206001015490506000610c7483611173565b90508073ffffffffffffffffffffffffffffffffffffffff163373ffffffffffffffffffffffffffffffffffffffff1603610ce4576040517f08c379a0000000000000000000000000000000000000000000000000000000008152600401610cdb90613daf565b60405180910390fd5b813414610d26576040517f08c379a0000000000000000000000000000000000000000000000000000000008152600401610d1d90613e1b565b60405180910390fd5b60006064600a84610d379190613e6a565b610d419190613ef3565b90506000600c600086815260200190815260200160002060020160009054906101000a900473ffffffffffffffffffffffffffffffffffffffff1690506000600c600087815260200190815260200160002060020160146101000a81548160ff021916908315150217905550610db7600961206a565b8073ffffffffffffffffffffffffffffffffffffffff166108fc839081150290604051600060405180830381858888f19350505050158015610dfd573d6000803e3d6000fd5b508273ffffffffffffffffffffffffffffffffffffffff166108fc8334610e249190613f24565b9081150290604051600060405180830381858888f19350505050158015610e4f573d6000803e3d6000fd5b50610e5b833387611e04565b5050505050565b6000610e6d836112d6565b8210610eae576040517f08c379a0000000000000000000000000000000000000000000000000000000008152600401610ea590613fa4565b60405180910390fd5b600d60008473ffffffffffffffffffffffffffffffffffffffff1673ffffffffffffffffffffffffffffffffffffffff168152602001908152602001600020600083815260200190815260200160002054905092915050565b60606000610f13610a65565b9050600080610f2260096120c6565b67ffffffffffffffff811115610f3b57610f3a613514565b5b604051908082528060200260200182016040528015610f7457816020015b610f61612f62565b815260200190600190039081610f595790505b50905060005b83811015611097576000610f8d82611102565b90506000600c60008381526020019081526020016000209050600115158160020160149054906101000a900460ff16151503611082578060405180608001604052908160008201548152602001600182015481526020016002820160009054906101000a900473ffffffffffffffffffffffffffffffffffffffff1673ffffffffffffffffffffffffffffffffffffffff1673ffffffffffffffffffffffffffffffffffffffff1681526020016002820160149054906101000a900460ff16151515158152505084868151811061106757611066613fc4565b5b602002602001018190525060018561107f9190613ff3565b94505b5050808061108f90614049565b915050610f7a565b5080935050505090565b6110bc83838360405180602001604052806000815250611714565b505050565b600060011515600b836040516110d791906140cd565b908152602001604051809103902060009054906101000a900460ff161515149050919050565b600a81565b600061110c610a65565b821061114d576040517f08c379a000000000000000000000000000000000000000000000000000000000815260040161114490613fa4565b60405180910390fd5b600f828154811061116157611160613fc4565b5b90600052602060002001549050919050565b6000806002600084815260200190815260200160002060009054906101000a900473ffffffffffffffffffffffffffffffffffffffff169050600073ffffffffffffffffffffffffffffffffffffffff168173ffffffffffffffffffffffffffffffffffffffff160361121b576040517f08c379a000000000000000000000000000000000000000000000000000000000815260040161121290614156565b60405180910390fd5b80915050919050565b61122c612f62565b600c600083815260200190815260200160002060405180608001604052908160008201548152602001600182015481526020016002820160009054906101000a900473ffffffffffffffffffffffffffffffffffffffff1673ffffffffffffffffffffffffffffffffffffffff1673ffffffffffffffffffffffffffffffffffffffff1681526020016002820160149054906101000a900460ff1615151515815250509050919050565b60008073ffffffffffffffffffffffffffffffffffffffff168273ffffffffffffffffffffffffffffffffffffffff1603611346576040517f08c379a000000000000000000000000000000000000000000000000000000000815260040161133d906141e8565b60405180910390fd5b600360008373ffffffffffffffffffffffffffffffffffffffff1673ffffffffffffffffffffffffffffffffffffffff168152602001908152602001600020549050919050565b6060600061139a336112d6565b905060008167ffffffffffffffff8111156113b8576113b7613514565b5b6040519080825280602002602001820160405280156113f157816020015b6113de612f62565b8152602001906001900390816113d65790505b50905060005b828110156114e857600061140b3383610e62565b90506000600c600083815260200190815260200160002090508060405180608001604052908160008201548152602001600182015481526020016002820160009054906101000a900473ffffffffffffffffffffffffffffffffffffffff1673ffffffffffffffffffffffffffffffffffffffff1673ffffffffffffffffffffffffffffffffffffffff1681526020016002820160149054906101000a900460ff1615151515815250508484815181106114c8576114c7613fc4565b5b6020026020010181905250505080806114e090614049565b9150506113f7565b50809250505090565b6114f9611c4f565b73ffffffffffffffffffffffffffffffffffffffff16611517611642565b73ffffffffffffffffffffffffffffffffffffffff161461156d576040517f08c379a000000000000000000000000000000000000000000000000000000000815260040161156490614254565b60405180910390fd5b61157760006120d4565b565b611581611c4f565b73ffffffffffffffffffffffffffffffffffffffff1661159f611642565b73ffffffffffffffffffffffffffffffffffffffff16146115f5576040517f08c379a00000000000000000000000000000000000000000000000000000000081526004016115ec90614254565b60405180910390fd5b60008111611638576040517f08c379a000000000000000000000000000000000000000000000000000000000815260040161162f906142c0565b60405180910390fd5b8060088190555050565b6000600760009054906101000a900473ffffffffffffffffffffffffffffffffffffffff16905090565b60606001805461167b90613980565b80601f01602080910402602001604051908101604052809291908181526020018280546116a790613980565b80156116f45780601f106116c9576101008083540402835291602001916116f4565b820191906000526020600020905b8154815290600101906020018083116116d757829003601f168201915b5050505050905090565b611710611709611c4f565b838361219a565b5050565b61172561171f611c4f565b83611d26565b611764576040517f08c379a000000000000000000000000000000000000000000000000000000000815260040161175b90613d43565b60405180910390fd5b61177084848484612306565b50505050565b6000611781836110c1565b156117c1576040517f08c379a00000000000000000000000000000000000000000000000000000000081526004016117b89061432c565b60405180910390fd5b6008543414611805576040517f08c379a00000000000000000000000000000000000000000000000000000000081526004016117fc90613cb1565b60405180910390fd5b61180f600a611d10565b6118196009611d10565b6000611825600a6120c6565b90506118313382612362565b61183b8185612380565b61184581846123f4565b6001600b8560405161185791906140cd565b908152602001604051809103902060006101000a81548160ff0219169083151502179055508091505092915050565b60085481565b606061189782611be3565b6118d6576040517f08c379a00000000000000000000000000000000000000000000000000000000081526004016118cd906143be565b60405180910390fd5b60006006600084815260200190815260200160002080546118f690613980565b80601f016020809104026020016040519081016040528092919081815260200182805461192290613980565b801561196f5780601f106119445761010080835404028352916020019161196f565b820191906000526020600020905b81548152906001019060200180831161195257829003601f168201915b505050505090506000611980612544565b905060008151036119955781925050506119d8565b6000825111156119ca5780826040516020016119b29291906143de565b604051602081830303815290604052925050506119d8565b6119d38461255b565b925050505b919050565b60006119e960096120c6565b905090565b6000600560008473ffffffffffffffffffffffffffffffffffffffff1673ffffffffffffffffffffffffffffffffffffffff16815260200190815260200160002060008373ffffffffffffffffffffffffffffffffffffffff1673ffffffffffffffffffffffffffffffffffffffff16815260200190815260200160002060009054906101000a900460ff16905092915050565b611a8a611c4f565b73ffffffffffffffffffffffffffffffffffffffff16611aa8611642565b73ffffffffffffffffffffffffffffffffffffffff1614611afe576040517f08c379a0000000000000000000000000000000000000000000000000000000008152600401611af590614254565b60405180910390fd5b600073ffffffffffffffffffffffffffffffffffffffff168173ffffffffffffffffffffffffffffffffffffffff1603611b6d576040517f08c379a0000000000000000000000000000000000000000000000000000000008152600401611b6490614474565b60405180910390fd5b611b76816120d4565b50565b60007f01ffc9a7000000000000000000000000000000000000000000000000000000007bffffffffffffffffffffffffffffffffffffffffffffffffffffffff1916827bffffffffffffffffffffffffffffffffffffffffffffffffffffffff1916149050919050565b60008073ffffffffffffffffffffffffffffffffffffffff166002600084815260200190815260200160002060009054906101000a900473ffffffffffffffffffffffffffffffffffffffff1673ffffffffffffffffffffffffffffffffffffffff1614159050919050565b600033905090565b816004600083815260200190815260200160002060006101000a81548173ffffffffffffffffffffffffffffffffffffffff021916908373ffffffffffffffffffffffffffffffffffffffff160217905550808273ffffffffffffffffffffffffffffffffffffffff16611cca83611173565b73ffffffffffffffffffffffffffffffffffffffff167f8c5be1e5ebec7d5bd14f71427d1e84f3dd0314c0f7b2291e5b200ac8c7c3b92560405160405180910390a45050565b6001816000016000828254019250508190555050565b6000611d3182611be3565b611d70576040517f08c379a0000000000000000000000000000000000000000000000000000000008152600401611d6790614506565b60405180910390fd5b6000611d7b83611173565b90508073ffffffffffffffffffffffffffffffffffffffff168473ffffffffffffffffffffffffffffffffffffffff161480611dea57508373ffffffffffffffffffffffffffffffffffffffff16611dd2846108c9565b73ffffffffffffffffffffffffffffffffffffffff16145b80611dfb5750611dfa81856119ee565b5b91505092915050565b8273ffffffffffffffffffffffffffffffffffffffff16611e2482611173565b73ffffffffffffffffffffffffffffffffffffffff1614611e7a576040517f08c379a0000000000000000000000000000000000000000000000000000000008152600401611e7190614598565b60405180910390fd5b600073ffffffffffffffffffffffffffffffffffffffff168273ffffffffffffffffffffffffffffffffffffffff1603611ee9576040517f08c379a0000000000000000000000000000000000000000000000000000000008152600401611ee09061462a565b60405180910390fd5b611ef4838383612602565b611eff600082611c57565b6001600360008573ffffffffffffffffffffffffffffffffffffffff1673ffffffffffffffffffffffffffffffffffffffff1681526020019081526020016000206000828254611f4f9190613f24565b925050819055506001600360008473ffffffffffffffffffffffffffffffffffffffff1673ffffffffffffffffffffffffffffffffffffffff1681526020019081526020016000206000828254611fa69190613ff3565b92505081905550816002600083815260200190815260200160002060006101000a81548173ffffffffffffffffffffffffffffffffffffffff021916908373ffffffffffffffffffffffffffffffffffffffff160217905550808273ffffffffffffffffffffffffffffffffffffffff168473ffffffffffffffffffffffffffffffffffffffff167fddf252ad1be2c89b69c2b068fc378daa952ba7f163c4a11628f55a4df523b3ef60405160405180910390a4612065838383612714565b505050565b600081600001549050600081116120b6576040517f08c379a00000000000000000000000000000000000000000000000000000000081526004016120ad90614696565b60405180910390fd5b6001810382600001819055505050565b600081600001549050919050565b6000600760009054906101000a900473ffffffffffffffffffffffffffffffffffffffff16905081600760006101000a81548173ffffffffffffffffffffffffffffffffffffffff021916908373ffffffffffffffffffffffffffffffffffffffff1602179055508173ffffffffffffffffffffffffffffffffffffffff168173ffffffffffffffffffffffffffffffffffffffff167f8be0079c531659141344cd1fd0a4f28419497f9722a3daafe3b4186f6b6457e060405160405180910390a35050565b8173ffffffffffffffffffffffffffffffffffffffff168373ffffffffffffffffffffffffffffffffffffffff1603612208576040517f08c379a00000000000000000000000000000000000000000000000000000000081526004016121ff90614702565b60405180910390fd5b80600560008573ffffffffffffffffffffffffffffffffffffffff1673ffffffffffffffffffffffffffffffffffffffff16815260200190815260200160002060008473ffffffffffffffffffffffffffffffffffffffff1673ffffffffffffffffffffffffffffffffffffffff16815260200190815260200160002060006101000a81548160ff0219169083151502179055508173ffffffffffffffffffffffffffffffffffffffff168373ffffffffffffffffffffffffffffffffffffffff167f17307eab39ab6107e8899845ad3d59bd9653f200f220920489ca2b5937696c31836040516122f991906130f9565b60405180910390a3505050565b612311848484611e04565b61231d84848484612719565b61235c576040517f08c379a000000000000000000000000000000000000000000000000000000000815260040161235390614794565b60405180910390fd5b50505050565b61237c8282604051806020016040528060008152506128a0565b5050565b61238982611be3565b6123c8576040517f08c379a00000000000000000000000000000000000000000000000000000000081526004016123bf90614826565b60405180910390fd5b806006600084815260200190815260200160002090805190602001906123ef929190612fa2565b505050565b60008111612437576040517f08c379a000000000000000000000000000000000000000000000000000000000815260040161242e906142c0565b60405180910390fd5b60405180608001604052808381526020018281526020013373ffffffffffffffffffffffffffffffffffffffff16815260200160011515815250600c6000848152602001908152602001600020600082015181600001556020820151816001015560408201518160020160006101000a81548173ffffffffffffffffffffffffffffffffffffffff021916908373ffffffffffffffffffffffffffffffffffffffff16021790555060608201518160020160146101000a81548160ff0219169083151502179055509050507f470031062672bc0246e132c723a729c4676710ec663a29e86c88678032daddea82823360016040516125389493929190614846565b60405180910390a15050565b606060405180602001604052806000815250905090565b606061256682611be3565b6125a5576040517f08c379a000000000000000000000000000000000000000000000000000000000815260040161259c906148fd565b60405180910390fd5b60006125af612544565b905060008151116125cf57604051806020016040528060008152506125fa565b806125d9846128fb565b6040516020016125ea9291906143de565b6040516020818303038152906040525b915050919050565b61260d838383612a5b565b600073ffffffffffffffffffffffffffffffffffffffff168373ffffffffffffffffffffffffffffffffffffffff160361264f5761264a81612a60565b61268e565b8173ffffffffffffffffffffffffffffffffffffffff168373ffffffffffffffffffffffffffffffffffffffff161461268d5761268c8382612aa9565b5b5b600073ffffffffffffffffffffffffffffffffffffffff168273ffffffffffffffffffffffffffffffffffffffff16036126d0576126cb81612c16565b61270f565b8273ffffffffffffffffffffffffffffffffffffffff168273ffffffffffffffffffffffffffffffffffffffff161461270e5761270d8282612ce7565b5b5b505050565b505050565b600061273a8473ffffffffffffffffffffffffffffffffffffffff16612d66565b15612893578373ffffffffffffffffffffffffffffffffffffffff1663150b7a02612763611c4f565b8786866040518563ffffffff1660e01b81526004016127859493929190614972565b6020604051808303816000875af19250505080156127c157506040513d601f19601f820116820180604052508101906127be91906149d3565b60015b612843573d80600081146127f1576040519150601f19603f3d011682016040523d82523d6000602084013e6127f6565b606091505b50600081510361283b576040517f08c379a000000000000000000000000000000000000000000000000000000000815260040161283290614794565b60405180910390fd5b805181602001fd5b63150b7a0260e01b7bffffffffffffffffffffffffffffffffffffffffffffffffffffffff1916817bffffffffffffffffffffffffffffffffffffffffffffffffffffffff191614915050612898565b600190505b949350505050565b6128aa8383612d89565b6128b76000848484612719565b6128f6576040517f08c379a00000000000000000000000000000000000000000000000000000000081526004016128ed90614794565b60405180910390fd5b505050565b606060008203612942576040518060400160405280600181526020017f30000000000000000000000000000000000000000000000000000000000000008152509050612a56565b600082905060005b6000821461297457808061295d90614049565b915050600a8261296d9190613ef3565b915061294a565b60008167ffffffffffffffff8111156129905761298f613514565b5b6040519080825280601f01601f1916602001820160405280156129c25781602001600182028036833780820191505090505b5090505b60008514612a4f576001826129db9190613f24565b9150600a856129ea9190614a00565b60306129f69190613ff3565b60f81b818381518110612a0c57612a0b613fc4565b5b60200101907effffffffffffffffffffffffffffffffffffffffffffffffffffffffffffff1916908160001a905350600a85612a489190613ef3565b94506129c6565b8093505050505b919050565b505050565b600f805490506010600083815260200190815260200160002081905550600f81908060018154018082558091505060019003906000526020600020016000909190919091505550565b60006001612ab6846112d6565b612ac09190613f24565b90506000600e6000848152602001908152602001600020549050818114612ba5576000600d60008673ffffffffffffffffffffffffffffffffffffffff1673ffffffffffffffffffffffffffffffffffffffff168152602001908152602001600020600084815260200190815260200160002054905080600d60008773ffffffffffffffffffffffffffffffffffffffff1673ffffffffffffffffffffffffffffffffffffffff16815260200190815260200160002060008481526020019081526020016000208190555081600e600083815260200190815260200160002081905550505b600e600084815260200190815260200160002060009055600d60008573ffffffffffffffffffffffffffffffffffffffff1673ffffffffffffffffffffffffffffffffffffffff16815260200190815260200160002060008381526020019081526020016000206000905550505050565b60006001600f80549050612c2a9190613f24565b90506000601060008481526020019081526020016000205490506000600f8381548110612c5a57612c59613fc4565b5b9060005260206000200154905080600f8381548110612c7c57612c7b613fc4565b5b90600052602060002001819055508160106000838152602001908152602001600020819055506010600085815260200190815260200160002060009055600f805480612ccb57612cca614a31565b5b6001900381819060005260206000200160009055905550505050565b6000612cf2836112d6565b905081600d60008573ffffffffffffffffffffffffffffffffffffffff1673ffffffffffffffffffffffffffffffffffffffff16815260200190815260200160002060008381526020019081526020016000208190555080600e600084815260200190815260200160002081905550505050565b6000808273ffffffffffffffffffffffffffffffffffffffff163b119050919050565b600073ffffffffffffffffffffffffffffffffffffffff168273ffffffffffffffffffffffffffffffffffffffff1603612df8576040517f08c379a0000000000000000000000000000000000000000000000000000000008152600401612def90614aac565b60405180910390fd5b612e0181611be3565b15612e41576040517f08c379a0000000000000000000000000000000000000000000000000000000008152600401612e3890614b18565b60405180910390fd5b612e4d60008383612602565b6001600360008473ffffffffffffffffffffffffffffffffffffffff1673ffffffffffffffffffffffffffffffffffffffff1681526020019081526020016000206000828254612e9d9190613ff3565b92505081905550816002600083815260200190815260200160002060006101000a81548173ffffffffffffffffffffffffffffffffffffffff021916908373ffffffffffffffffffffffffffffffffffffffff160217905550808273ffffffffffffffffffffffffffffffffffffffff16600073ffffffffffffffffffffffffffffffffffffffff167fddf252ad1be2c89b69c2b068fc378daa952ba7f163c4a11628f55a4df523b3ef60405160405180910390a4612f5e60008383612714565b5050565b60405180608001604052806000815260200160008152602001600073ffffffffffffffffffffffffffffffffffffffff1681526020016000151581525090565b828054612fae90613980565b90600052602060002090601f016020900481019282612fd05760008555613017565b82601f10612fe957805160ff1916838001178555613017565b82800160010185558215613017579182015b82811115613016578251825591602001919060010190612ffb565b5b5090506130249190613028565b5090565b5b80821115613041576000816000905550600101613029565b5090565b6000604051905090565b600080fd5b600080fd5b60007fffffffff0000000000000000000000000000000000000000000000000000000082169050919050565b61308e81613059565b811461309957600080fd5b50565b6000813590506130ab81613085565b92915050565b6000602082840312156130c7576130c661304f565b5b60006130d58482850161309c565b91505092915050565b60008115159050919050565b6130f3816130de565b82525050565b600060208201905061310e60008301846130ea565b92915050565b600081519050919050565b600082825260208201905092915050565b60005b8381101561314e578082015181840152602081019050613133565b8381111561315d576000848401525b50505050565b6000601f19601f8301169050919050565b600061317f82613114565b613189818561311f565b9350613199818560208601613130565b6131a281613163565b840191505092915050565b600060208201905081810360008301526131c78184613174565b905092915050565b6000819050919050565b6131e2816131cf565b81146131ed57600080fd5b50565b6000813590506131ff816131d9565b92915050565b60006020828403121561321b5761321a61304f565b5b6000613229848285016131f0565b91505092915050565b600073ffffffffffffffffffffffffffffffffffffffff82169050919050565b600061325d82613232565b9050919050565b61326d81613252565b82525050565b60006020820190506132886000830184613264565b92915050565b61329781613252565b81146132a257600080fd5b50565b6000813590506132b48161328e565b92915050565b600080604083850312156132d1576132d061304f565b5b60006132df858286016132a5565b92505060206132f0858286016131f0565b9150509250929050565b613303816131cf565b82525050565b600060208201905061331e60008301846132fa565b92915050565b6000806040838503121561333b5761333a61304f565b5b6000613349858286016131f0565b925050602061335a858286016131f0565b9150509250929050565b60008060006060848603121561337d5761337c61304f565b5b600061338b868287016132a5565b935050602061339c868287016132a5565b92505060406133ad868287016131f0565b9150509250925092565b600081519050919050565b600082825260208201905092915050565b6000819050602082019050919050565b6133ec816131cf565b82525050565b6133fb81613252565b82525050565b61340a816130de565b82525050565b60808201600082015161342660008501826133e3565b50602082015161343960208501826133e3565b50604082015161344c60408501826133f2565b50606082015161345f6060850182613401565b50505050565b60006134718383613410565b60808301905092915050565b6000602082019050919050565b6000613495826133b7565b61349f81856133c2565b93506134aa836133d3565b8060005b838110156134db5781516134c28882613465565b97506134cd8361347d565b9250506001810190506134ae565b5085935050505092915050565b60006020820190508181036000830152613502818461348a565b905092915050565b600080fd5b600080fd5b7f4e487b7100000000000000000000000000000000000000000000000000000000600052604160045260246000fd5b61354c82613163565b810181811067ffffffffffffffff8211171561356b5761356a613514565b5b80604052505050565b600061357e613045565b905061358a8282613543565b919050565b600067ffffffffffffffff8211156135aa576135a9613514565b5b6135b382613163565b9050602081019050919050565b82818337600083830152505050565b60006135e26135dd8461358f565b613574565b9050828152602081018484840111156135fe576135fd61350f565b5b6136098482856135c0565b509392505050565b600082601f8301126136265761362561350a565b5b81356136368482602086016135cf565b91505092915050565b6000602082840312156136555761365461304f565b5b600082013567ffffffffffffffff81111561367357613672613054565b5b61367f84828501613611565b91505092915050565b60808201600082015161369e60008501826133e3565b5060208201516136b160208501826133e3565b5060408201516136c460408501826133f2565b5060608201516136d76060850182613401565b50505050565b60006080820190506136f26000830184613688565b92915050565b60006020828403121561370e5761370d61304f565b5b600061371c848285016132a5565b91505092915050565b61372e816130de565b811461373957600080fd5b50565b60008135905061374b81613725565b92915050565b600080604083850312156137685761376761304f565b5b6000613776858286016132a5565b92505060206137878582860161373c565b9150509250929050565b600067ffffffffffffffff8211156137ac576137ab613514565b5b6137b582613163565b9050602081019050919050565b60006137d56137d084613791565b613574565b9050828152602081018484840111156137f1576137f061350f565b5b6137fc8482856135c0565b509392505050565b600082601f8301126138195761381861350a565b5b81356138298482602086016137c2565b91505092915050565b6000806000806080858703121561384c5761384b61304f565b5b600061385a878288016132a5565b945050602061386b878288016132a5565b935050604061387c878288016131f0565b925050606085013567ffffffffffffffff81111561389d5761389c613054565b5b6138a987828801613804565b91505092959194509250565b600080604083850312156138cc576138cb61304f565b5b600083013567ffffffffffffffff8111156138ea576138e9613054565b5b6138f685828601613611565b9250506020613907858286016131f0565b9150509250929050565b600080604083850312156139285761392761304f565b5b6000613936858286016132a5565b9250506020613947858286016132a5565b9150509250929050565b7f4e487b7100000000000000000000000000000000000000000000000000000000600052602260045260246000fd5b6000600282049050600182168061399857607f821691505b6020821081036139ab576139aa613951565b5b50919050565b7f4552433732313a20617070726f76656420717565727920666f72206e6f6e657860008201527f697374656e7420746f6b656e0000000000000000000000000000000000000000602082015250565b6000613a0d602c8361311f565b9150613a18826139b1565b604082019050919050565b60006020820190508181036000830152613a3c81613a00565b9050919050565b7f4552433732313a20617070726f76616c20746f2063757272656e74206f776e6560008201527f7200000000000000000000000000000000000000000000000000000000000000602082015250565b6000613a9f60218361311f565b9150613aaa82613a43565b604082019050919050565b60006020820190508181036000830152613ace81613a92565b9050919050565b7f4552433732313a20617070726f76652063616c6c6572206973206e6f74206f7760008201527f6e6572206e6f7220617070726f76656420666f7220616c6c0000000000000000602082015250565b6000613b3160388361311f565b9150613b3c82613ad5565b604082019050919050565b60006020820190508181036000830152613b6081613b24565b9050919050565b7f596f7520617265206e6f74206f776e6572206f662074686973204e4654000000600082015250565b6000613b9d601d8361311f565b9150613ba882613b67565b602082019050919050565b60006020820190508181036000830152613bcc81613b90565b9050919050565b7f4974656d20697320616c7265616479206f6e2073616c65000000000000000000600082015250565b6000613c0960178361311f565b9150613c1482613bd3565b602082019050919050565b60006020820190508181036000830152613c3881613bfc565b9050919050565b7f5072696365206d75737420626520657175616c20746f206c697374696e67207060008201527f7269636500000000000000000000000000000000000000000000000000000000602082015250565b6000613c9b60248361311f565b9150613ca682613c3f565b604082019050919050565b60006020820190508181036000830152613cca81613c8e565b9050919050565b7f4552433732313a207472616e736665722063616c6c6572206973206e6f74206f60008201527f776e6572206e6f7220617070726f766564000000000000000000000000000000602082015250565b6000613d2d60318361311f565b9150613d3882613cd1565b604082019050919050565b60006020820190508181036000830152613d5c81613d20565b9050919050565b7f596f7520616c7265616479206f776e2074686973204e46540000000000000000600082015250565b6000613d9960188361311f565b9150613da482613d63565b602082019050919050565b60006020820190508181036000830152613dc881613d8c565b9050919050565b7f506c65617365207375626d6974207468652061736b696e672070726963650000600082015250565b6000613e05601e8361311f565b9150613e1082613dcf565b602082019050919050565b60006020820190508181036000830152613e3481613df8565b9050919050565b7f4e487b7100000000000000000000000000000000000000000000000000000000600052601160045260246000fd5b6000613e75826131cf565b9150613e80836131cf565b9250817fffffffffffffffffffffffffffffffffffffffffffffffffffffffffffffffff0483118215151615613eb957613eb8613e3b565b5b828202905092915050565b7f4e487b7100000000000000000000000000000000000000000000000000000000600052601260045260246000fd5b6000613efe826131cf565b9150613f09836131cf565b925082613f1957613f18613ec4565b5b828204905092915050565b6000613f2f826131cf565b9150613f3a836131cf565b925082821015613f4d57613f4c613e3b565b5b828203905092915050565b7f496e646578206f7574206f6620626f756e647300000000000000000000000000600082015250565b6000613f8e60138361311f565b9150613f9982613f58565b602082019050919050565b60006020820190508181036000830152613fbd81613f81565b9050919050565b7f4e487b7100000000000000000000000000000000000000000000000000000000600052603260045260246000fd5b6000613ffe826131cf565b9150614009836131cf565b9250827fffffffffffffffffffffffffffffffffffffffffffffffffffffffffffffffff0382111561403e5761403d613e3b565b5b828201905092915050565b6000614054826131cf565b91507fffffffffffffffffffffffffffffffffffffffffffffffffffffffffffffffff820361408657614085613e3b565b5b600182019050919050565b600081905092915050565b60006140a782613114565b6140b18185614091565b93506140c1818560208601613130565b80840191505092915050565b60006140d9828461409c565b915081905092915050565b7f4552433732313a206f776e657220717565727920666f72206e6f6e657869737460008201527f656e7420746f6b656e0000000000000000000000000000000000000000000000602082015250565b600061414060298361311f565b915061414b826140e4565b604082019050919050565b6000602082019050818103600083015261416f81614133565b9050919050565b7f4552433732313a2062616c616e636520717565727920666f7220746865207a6560008201527f726f206164647265737300000000000000000000000000000000000000000000602082015250565b60006141d2602a8361311f565b91506141dd82614176565b604082019050919050565b60006020820190508181036000830152614201816141c5565b9050919050565b7f4f776e61626c653a2063616c6c6572206973206e6f7420746865206f776e6572600082015250565b600061423e60208361311f565b915061424982614208565b602082019050919050565b6000602082019050818103600083015261426d81614231565b9050919050565b7f5072696365206d757374206265206174206c6561737420312077656900000000600082015250565b60006142aa601c8361311f565b91506142b582614274565b602082019050919050565b600060208201905081810360008301526142d98161429d565b9050919050565b7f546f6b656e2055524920616c7265616479206578697374730000000000000000600082015250565b600061431660188361311f565b9150614321826142e0565b602082019050919050565b6000602082019050818103600083015261434581614309565b9050919050565b7f45524337323155524953746f726167653a2055524920717565727920666f722060008201527f6e6f6e6578697374656e7420746f6b656e000000000000000000000000000000602082015250565b60006143a860318361311f565b91506143b38261434c565b604082019050919050565b600060208201905081810360008301526143d78161439b565b9050919050565b60006143ea828561409c565b91506143f6828461409c565b91508190509392505050565b7f4f776e61626c653a206e6577206f776e657220697320746865207a65726f206160008201527f6464726573730000000000000000000000000000000000000000000000000000602082015250565b600061445e60268361311f565b915061446982614402565b604082019050919050565b6000602082019050818103600083015261448d81614451565b9050919050565b7f4552433732313a206f70657261746f7220717565727920666f72206e6f6e657860008201527f697374656e7420746f6b656e0000000000000000000000000000000000000000602082015250565b60006144f0602c8361311f565b91506144fb82614494565b604082019050919050565b6000602082019050818103600083015261451f816144e3565b9050919050565b7f4552433732313a207472616e736665722066726f6d20696e636f72726563742060008201527f6f776e6572000000000000000000000000000000000000000000000000000000602082015250565b600061458260258361311f565b915061458d82614526565b604082019050919050565b600060208201905081810360008301526145b181614575565b9050919050565b7f4552433732313a207472616e7366657220746f20746865207a65726f2061646460008201527f7265737300000000000000000000000000000000000000000000000000000000602082015250565b600061461460248361311f565b915061461f826145b8565b604082019050919050565b6000602082019050818103600083015261464381614607565b9050919050565b7f436f756e7465723a2064656372656d656e74206f766572666c6f770000000000600082015250565b6000614680601b8361311f565b915061468b8261464a565b602082019050919050565b600060208201905081810360008301526146af81614673565b9050919050565b7f4552433732313a20617070726f766520746f2063616c6c657200000000000000600082015250565b60006146ec60198361311f565b91506146f7826146b6565b602082019050919050565b6000602082019050818103600083015261471b816146df565b9050919050565b7f4552433732313a207472616e7366657220746f206e6f6e20455243373231526560008201527f63656976657220696d706c656d656e7465720000000000000000000000000000602082015250565b600061477e60328361311f565b915061478982614722565b604082019050919050565b600060208201905081810360008301526147ad81614771565b9050919050565b7f45524337323155524953746f726167653a2055524920736574206f66206e6f6e60008201527f6578697374656e7420746f6b656e000000000000000000000000000000000000602082015250565b6000614810602e8361311f565b915061481b826147b4565b604082019050919050565b6000602082019050818103600083015261483f81614803565b9050919050565b600060808201905061485b60008301876132fa565b61486860208301866132fa565b6148756040830185613264565b61488260608301846130ea565b95945050505050565b7f4552433732314d657461646174613a2055524920717565727920666f72206e6f60008201527f6e6578697374656e7420746f6b656e0000000000000000000000000000000000602082015250565b60006148e7602f8361311f565b91506148f28261488b565b604082019050919050565b60006020820190508181036000830152614916816148da565b9050919050565b600081519050919050565b600082825260208201905092915050565b60006149448261491d565b61494e8185614928565b935061495e818560208601613130565b61496781613163565b840191505092915050565b60006080820190506149876000830187613264565b6149946020830186613264565b6149a160408301856132fa565b81810360608301526149b38184614939565b905095945050505050565b6000815190506149cd81613085565b92915050565b6000602082840312156149e9576149e861304f565b5b60006149f7848285016149be565b91505092915050565b6000614a0b826131cf565b9150614a16836131cf565b925082614a2657614a25613ec4565b5b828206905092915050565b7f4e487b7100000000000000000000000000000000000000000000000000000000600052603160045260246000fd5b7f4552433732313a206d696e7420746f20746865207a65726f2061646472657373600082015250565b6000614a9660208361311f565b9150614aa182614a60565b602082019050919050565b60006020820190508181036000830152614ac581614a89565b9050919050565b7f4552433732313a20746f6b656e20616c7265616479206d696e74656400000000600082015250565b6000614b02601c8361311f565b9150614b0d82614acc565b602082019050919050565b60006020820190508181036000830152614b3181614af5565b905091905056fea2646970667358221220363f7ef45c53b6f5dbf29c5a9f2ec18f8e4f587948db8170a3a510ea9f564cb064736f6c634300080d0033",
  "immutableReferences": {},
  "source": "// SPDX-License-Identifier: MIT\r\npragma solidity >=0.4.22 <0.9.0;\r\n\r\nimport \"@openzeppelin/contracts/token/ERC721/extensions/ERC721URIStorage.sol\";\r\nimport \"@openzeppelin/contracts/utils/Counters.sol\";\r\nimport \"@openzeppelin/contracts/access/Ownable.sol\";\r\n\r\ncontract NftMarket is ERC721URIStorage, Ownable {\r\n  using Counters for Counters.Counter;\r\n\r\n  struct NftItem {\r\n    uint tokenId;\r\n    uint price;\r\n    address creator;\r\n    bool isListed;\r\n  }\r\n\r\n  uint public listingPrice = 0.025 ether;\r\n  uint public constant ROYALTY_PERCENTAGE = 10; // Fixed royalty percentage (10%)\r\n\r\n  Counters.Counter private _listedItems;\r\n  Counters.Counter private _tokenIds;\r\n\r\n  mapping(string => bool) private _usedTokenURIs;\r\n  mapping(uint => NftItem) private _idToNftItem;\r\n\r\n  mapping(address => mapping(uint => uint)) private _ownedTokens;\r\n  mapping(uint => uint) private _idToOwnedIndex;\r\n\r\n  uint256[] private _allNfts;\r\n  mapping(uint => uint) private _idToNftIndex;\r\n\r\n  event NftItemCreated (\r\n    uint tokenId,\r\n    uint price,\r\n    address creator,\r\n    bool isListed\r\n  );\r\n\r\n  constructor() ERC721(\"CreaturesNFT\", \"CNFT\") {}\r\n\r\n  function setListingPrice(uint newPrice) external onlyOwner {\r\n    require(newPrice > 0, \"Price must be at least 1 wei\");\r\n    listingPrice = newPrice;\r\n  }\r\n\r\n  function getNftItem(uint tokenId) public view returns (NftItem memory) {\r\n    return _idToNftItem[tokenId];\r\n  }\r\n\r\n  function listedItemsCount() public view returns (uint) {\r\n    return _listedItems.current();\r\n  }\r\n\r\n  function tokenURIExists(string memory tokenURI) public view returns (bool) {\r\n    return _usedTokenURIs[tokenURI] == true;\r\n  }\r\n\r\n  function totalSupply() public view returns (uint) {\r\n    return _allNfts.length;\r\n  }\r\n\r\n  function tokenByIndex(uint index) public view returns (uint) {\r\n    require(index < totalSupply(), \"Index out of bounds\");\r\n    return _allNfts[index];\r\n  }\r\n\r\n  function tokenOfOwnerByIndex(address owner, uint index) public view returns (uint) {\r\n    require(index < ERC721.balanceOf(owner), \"Index out of bounds\");\r\n    return _ownedTokens[owner][index];\r\n  }\r\n\r\n  function getAllNftsOnSale() public view returns (NftItem[] memory) {\r\n    uint allItemsCounts = totalSupply();\r\n    uint currentIndex = 0;\r\n    NftItem[] memory items = new NftItem[](_listedItems.current());\r\n\r\n    for (uint i = 0; i < allItemsCounts; i++) {\r\n      uint tokenId = tokenByIndex(i);\r\n      NftItem storage item = _idToNftItem[tokenId];\r\n\r\n      if (item.isListed == true) {\r\n        items[currentIndex] = item;\r\n        currentIndex += 1;\r\n      }\r\n    }\r\n\r\n    return items;\r\n  }\r\n\r\n  function getOwnedNfts() public view returns (NftItem[] memory) {\r\n    uint ownedItemsCount = ERC721.balanceOf(msg.sender);\r\n    NftItem[] memory items = new NftItem[](ownedItemsCount);\r\n\r\n    for (uint i = 0; i < ownedItemsCount; i++) {\r\n      uint tokenId = tokenOfOwnerByIndex(msg.sender, i);\r\n      NftItem storage item = _idToNftItem[tokenId];\r\n      items[i] = item;\r\n    }\r\n\r\n    return items;\r\n  }\r\n\r\n  function mintToken(\r\n    string memory tokenURI, \r\n    uint price\r\n  ) public payable returns (uint) {\r\n    require(!tokenURIExists(tokenURI), \"Token URI already exists\");\r\n    require(msg.value == listingPrice, \"Price must be equal to listing price\");\r\n\r\n    _tokenIds.increment();\r\n    _listedItems.increment();\r\n\r\n    uint newTokenId = _tokenIds.current();\r\n\r\n    _safeMint(msg.sender, newTokenId);\r\n    _setTokenURI(newTokenId, tokenURI);\r\n    _createNftItem(newTokenId, price);\r\n    _usedTokenURIs[tokenURI] = true;\r\n\r\n    return newTokenId;\r\n  }\r\n\r\n  function buyNft(uint tokenId) public payable {\r\n    uint price = _idToNftItem[tokenId].price;\r\n    address owner = ERC721.ownerOf(tokenId);\r\n\r\n    require(msg.sender != owner, \"You already own this NFT\");\r\n    require(msg.value == price, \"Please submit the asking price\");\r\n\r\n    uint royaltyAmount = (price * ROYALTY_PERCENTAGE) / 100;\r\n    address creator = _idToNftItem[tokenId].creator;\r\n\r\n    _idToNftItem[tokenId].isListed = false;\r\n    _listedItems.decrement();\r\n\r\n    // Transfer royalty to creator\r\n    payable(creator).transfer(royaltyAmount);\r\n\r\n    // Transfer remaining to the owner\r\n    payable(owner).transfer(msg.value - royaltyAmount);\r\n\r\n    // Transfer NFT ownership to buyer\r\n    _transfer(owner, msg.sender, tokenId);\r\n  }\r\n\r\n  function placeNftOnSale(uint tokenId, uint newPrice) public payable {\r\n    require(ERC721.ownerOf(tokenId) == msg.sender, \"You are not owner of this NFT\");\r\n    require(_idToNftItem[tokenId].isListed == false, \"Item is already on sale\");\r\n    require(msg.value == listingPrice, \"Price must be equal to listing price\");\r\n\r\n    _idToNftItem[tokenId].isListed = true;\r\n    _idToNftItem[tokenId].price = newPrice;\r\n    _listedItems.increment();\r\n  }\r\n\r\n  function _createNftItem(\r\n    uint tokenId, \r\n    uint price\r\n  ) private {\r\n    require(price > 0, \"Price must be at least 1 wei\");\r\n\r\n    _idToNftItem[tokenId] = NftItem(\r\n      tokenId,\r\n      price,\r\n      msg.sender,\r\n      true\r\n    );\r\n\r\n    emit NftItemCreated(tokenId, price, msg.sender, true);\r\n  }\r\n\r\n\r\nfunction _beforeTokenTransfer(\r\n    address from,\r\n    address to,\r\n    uint tokenId\r\n  ) internal virtual override {\r\n    super._beforeTokenTransfer(from, to, tokenId);\r\n    // minting token\r\n    if (from == address(0)) {\r\n      _addTokenToAllTokensEnumeration(tokenId);\r\n    } else if (from != to) {\r\n      _removeTokenFromOwnerEnumeration(from, tokenId);\r\n    }\r\n    if (to == address(0)) {\r\n      _removeTokenFromAllTokensEnumeration(tokenId);\r\n    } else if (to != from) {\r\n      _addTokenToOwnerEnumeration(to, tokenId);\r\n    }\r\n  }\r\n  function _addTokenToAllTokensEnumeration(uint tokenId) private {\r\n    _idToNftIndex[tokenId] = _allNfts.length;\r\n    _allNfts.push(tokenId);\r\n  }\r\n  function _addTokenToOwnerEnumeration(address to, uint tokenId) private {\r\n    uint length = ERC721.balanceOf(to);\r\n    _ownedTokens[to][length] = tokenId;\r\n    _idToOwnedIndex[tokenId] = length;\r\n  }\r\n  function _removeTokenFromOwnerEnumeration(address from, uint tokenId) private {\r\n    uint lastTokenIndex = ERC721.balanceOf(from) - 1;\r\n    uint tokenIndex = _idToOwnedIndex[tokenId];\r\n    if (tokenIndex != lastTokenIndex) {\r\n      uint lastTokenId = _ownedTokens[from][lastTokenIndex];\r\n      _ownedTokens[from][tokenIndex] = lastTokenId;\r\n      _idToOwnedIndex[lastTokenId] = tokenIndex;\r\n    }\r\n    delete _idToOwnedIndex[tokenId];\r\n    delete _ownedTokens[from][lastTokenIndex];\r\n  }\r\n  function _removeTokenFromAllTokensEnumeration(uint tokenId) private {\r\n    uint lastTokenIndex = _allNfts.length - 1;\r\n    uint tokenIndex = _idToNftIndex[tokenId];\r\n    uint lastTokenId = _allNfts[lastTokenIndex];\r\n    _allNfts[tokenIndex] = lastTokenId;\r\n    _idToNftIndex[lastTokenId] = tokenIndex;\r\n    delete _idToNftIndex[tokenId];\r\n    _allNfts.pop();\r\n  }\r\n}\r\n\r\n  \r\n\r\n",
  "sourcePath": "D:\\college\\blockchain\\nft-marketplace\\contracts\\NftMarket.sol",
  "compiler": {
    "name": "solc",
    "version": "0.8.13+commit.abaa5c0e.Emscripten.clang"
  },
  "schemaVersion": "3.4.16",
  "updatedAt": "2024-10-09T16:01:56.771Z",
  "networkType": "ethereum",
  "devdoc": {
    "kind": "dev",
    "methods": {
      "approve(address,uint256)": {
        "details": "See {IERC721-approve}."
      },
      "balanceOf(address)": {
        "details": "See {IERC721-balanceOf}."
      },
      "getApproved(uint256)": {
        "details": "See {IERC721-getApproved}."
      },
      "isApprovedForAll(address,address)": {
        "details": "See {IERC721-isApprovedForAll}."
      },
      "name()": {
        "details": "See {IERC721Metadata-name}."
      },
      "owner()": {
        "details": "Returns the address of the current owner."
      },
      "ownerOf(uint256)": {
        "details": "See {IERC721-ownerOf}."
      },
      "renounceOwnership()": {
        "details": "Leaves the contract without owner. It will not be possible to call `onlyOwner` functions anymore. Can only be called by the current owner. NOTE: Renouncing ownership will leave the contract without an owner, thereby removing any functionality that is only available to the owner."
      },
      "safeTransferFrom(address,address,uint256)": {
        "details": "See {IERC721-safeTransferFrom}."
      },
      "safeTransferFrom(address,address,uint256,bytes)": {
        "details": "See {IERC721-safeTransferFrom}."
      },
      "setApprovalForAll(address,bool)": {
        "details": "See {IERC721-setApprovalForAll}."
      },
      "supportsInterface(bytes4)": {
        "details": "See {IERC165-supportsInterface}."
      },
      "symbol()": {
        "details": "See {IERC721Metadata-symbol}."
      },
      "tokenURI(uint256)": {
        "details": "See {IERC721Metadata-tokenURI}."
      },
      "transferFrom(address,address,uint256)": {
        "details": "See {IERC721-transferFrom}."
      },
      "transferOwnership(address)": {
        "details": "Transfers ownership of the contract to a new account (`newOwner`). Can only be called by the current owner."
      }
    },
    "version": 1
  },
  "userdoc": {
    "kind": "user",
    "methods": {},
    "version": 1
  }
}